{
  "address": "0x5FbDB2315678afecb367f032d93F642f64180aa3",
  "abi": [
    {
      "inputs": [],
      "stateMutability": "payable",
      "type": "constructor"
    },
    {
      "anonymous": false,
      "inputs": [
        {
          "indexed": true,
          "internalType": "uint256",
          "name": "MatchChallengeId",
          "type": "uint256"
        },
        {
          "indexed": false,
          "internalType": "uint8",
          "name": "team1Result",
          "type": "uint8"
        },
        {
          "indexed": false,
          "internalType": "uint8",
          "name": "team2Result",
          "type": "uint8"
        }
      ],
      "name": "ChallengeResult",
      "type": "event"
    },
    {
      "inputs": [
        {
          "internalType": "uint256",
          "name": "_challengeId",
          "type": "uint256"
        }
      ],
      "name": "acceptChallenge",
      "outputs": [],
      "stateMutability": "payable",
      "type": "function"
    },
    {
      "inputs": [
        {
          "internalType": "uint256",
          "name": "_challengeId",
          "type": "uint256"
        },
        {
          "internalType": "uint8",
          "name": "_team1Result",
          "type": "uint8"
        },
        {
          "internalType": "uint8",
          "name": "_team2Result",
          "type": "uint8"
        }
      ],
      "name": "completeChallenge",
      "outputs": [],
      "stateMutability": "nonpayable",
      "type": "function"
    },
    {
      "inputs": [
        {
          "internalType": "address",
          "name": "_team2",
          "type": "address"
        },
        {
          "internalType": "address",
          "name": "locationProvider",
          "type": "address"
        }
      ],
      "name": "createChallenge",
      "outputs": [],
      "stateMutability": "payable",
      "type": "function"
    },
    {
      "inputs": [
        {
          "internalType": "uint256",
          "name": "_challengeId",
          "type": "uint256"
        }
      ],
      "name": "deleteChallenge",
      "outputs": [],
      "stateMutability": "nonpayable",
      "type": "function"
    },
    {
      "inputs": [
        {
          "internalType": "uint256",
          "name": "_id",
          "type": "uint256"
        }
      ],
      "name": "isMatchAccepted",
      "outputs": [
        {
          "internalType": "bool",
          "name": "",
          "type": "bool"
        }
      ],
      "stateMutability": "view",
      "type": "function"
    },
    {
      "inputs": [
        {
          "internalType": "uint256",
          "name": "_id",
          "type": "uint256"
        }
      ],
      "name": "isMatchFinished",
      "outputs": [
        {
          "internalType": "bool",
          "name": "",
          "type": "bool"
        }
      ],
      "stateMutability": "view",
      "type": "function"
    },
    {
      "inputs": [
        {
          "internalType": "uint256",
          "name": "_id",
          "type": "uint256"
        }
      ],
      "name": "isMatchStarted",
      "outputs": [
        {
          "internalType": "bool",
          "name": "",
          "type": "bool"
        }
      ],
      "stateMutability": "view",
      "type": "function"
    },
    {
      "inputs": [
        {
          "internalType": "uint256",
          "name": "",
          "type": "uint256"
        }
      ],
      "name": "matchChallenges",
      "outputs": [
        {
          "internalType": "address",
          "name": "team1",
          "type": "address"
        },
        {
          "internalType": "address",
          "name": "team2",
          "type": "address"
        },
        {
          "internalType": "bool",
          "name": "accepted",
          "type": "bool"
        },
        {
          "internalType": "bool",
          "name": "started",
          "type": "bool"
        },
        {
          "internalType": "bool",
          "name": "finished",
          "type": "bool"
        },
        {
          "internalType": "uint256",
          "name": "amount",
          "type": "uint256"
        },
        {
          "internalType": "address",
          "name": "locationProvider",
          "type": "address"
        }
      ],
      "stateMutability": "view",
      "type": "function"
    },
    {
      "inputs": [
        {
          "internalType": "uint256",
          "name": "_challengeId",
          "type": "uint256"
        }
      ],
      "name": "startChallenge",
      "outputs": [],
      "stateMutability": "nonpayable",
      "type": "function"
    },
    {
      "inputs": [
        {
          "internalType": "uint256",
          "name": "_challengeId",
          "type": "uint256"
        },
        {
          "internalType": "address",
          "name": "_newTeam2",
          "type": "address"
        }
      ],
      "name": "updateChallengedTeam",
      "outputs": [],
      "stateMutability": "nonpayable",
      "type": "function"
    },
    {
      "inputs": [
        {
          "internalType": "uint256",
          "name": "_challengeId",
          "type": "uint256"
        },
        {
          "internalType": "address",
          "name": "_newLocationProvider",
          "type": "address"
        }
      ],
      "name": "updateLocationProvider",
      "outputs": [],
      "stateMutability": "nonpayable",
      "type": "function"
    },
    {
      "inputs": [
        {
          "internalType": "uint256",
          "name": "_id",
          "type": "uint256"
        }
      ],
      "name": "viewMatchChallenge",
      "outputs": [
        {
          "internalType": "address[3]",
          "name": "",
          "type": "address[3]"
        }
      ],
      "stateMutability": "view",
      "type": "function"
    }
  ],
  "transactionHash": "0xdfbda94eaff9b5c88fecac791f400a90268e9aa0086d57bf58289834c51b4ae5",
  "args": [],
  "numDeployments": 1,
  "solcInputHash": "ee71cff806325cd2b3f0a8a424dc67c6",
  "bytecode": "0x608060405261268b806100136000396000f3fe6080604052600436106100a75760003560e01c8063486b971211610064578063486b9712146101a95780636ad4e87a146101e65780638df9378a1461020f578063c40ab0ef1461024c578063e4576ea21461028f578063e61a067c146102cc576100a7565b8063030a8082146100ac57806311a5800d146100d55780631b0fc106146100fe5780631e750b541461011a57806321d1c6ec146101435780633bf4a7591461016c575b600080fd5b3480156100b857600080fd5b506100d360048036038101906100ce9190611ae1565b6102e8565b005b3480156100e157600080fd5b506100fc60048036038101906100f79190611b34565b61095a565b005b61011860048036038101906101139190611b34565b610e21565b005b34801561012657600080fd5b50610141600480360381019061013c9190611bbf565b610f7d565b005b34801561014f57600080fd5b5061016a60048036038101906101659190611bbf565b61118c565b005b34801561017857600080fd5b50610193600480360381019061018e9190611b34565b611320565b6040516101a09190611c1a565b60405180910390f35b3480156101b557600080fd5b506101d060048036038101906101cb9190611b34565b61135b565b6040516101dd9190611c1a565b60405180910390f35b3480156101f257600080fd5b5061020d60048036038101906102089190611b34565b611396565b005b34801561021b57600080fd5b5061023660048036038101906102319190611b34565b6115b7565b6040516102439190611ce0565b60405180910390f35b34801561025857600080fd5b50610273600480360381019061026e9190611b34565b611749565b6040516102869796959493929190611d19565b60405180910390f35b34801561029b57600080fd5b506102b660048036038101906102b19190611b34565b611822565b6040516102c39190611c1a565b60405180910390f35b6102e660048036038101906102e19190611d88565b61185d565b005b6001151560008481548110610300576102ff611dc8565b5b906000526020600020906004020160010160159054906101000a900460ff16151514610361576040517f08c379a000000000000000000000000000000000000000000000000000000000815260040161035890611e54565b60405180910390fd5b600015156000848154811061037957610378611dc8565b5b906000526020600020906004020160010160169054906101000a900460ff161515146103da576040517f08c379a00000000000000000000000000000000000000000000000000000000081526004016103d190611ec0565b60405180910390fd5b600073ffffffffffffffffffffffffffffffffffffffff166000848154811061040657610405611dc8565b5b906000526020600020906004020160010160009054906101000a900473ffffffffffffffffffffffffffffffffffffffff1673ffffffffffffffffffffffffffffffffffffffff160361048e576040517f08c379a000000000000000000000000000000000000000000000000000000000815260040161048590611f2c565b60405180910390fd5b600083815481106104a2576104a1611dc8565b5b906000526020600020906004020160030160009054906101000a900473ffffffffffffffffffffffffffffffffffffffff1673ffffffffffffffffffffffffffffffffffffffff163373ffffffffffffffffffffffffffffffffffffffff1614610541576040517f08c379a000000000000000000000000000000000000000000000000000000000815260040161053890611fbe565b60405180910390fd5b60016000848154811061055757610556611dc8565b5b906000526020600020906004020160010160166101000a81548160ff021916908315150217905550827fe07ce8213c97adb2c7dd4e814f63b8613e929623bd94f12b0bbbdb67ea097f6f83836040516105b1929190611fed565b60405180910390a28060ff168260ff1611156106aa5760008084815481106105dc576105db611dc8565b5b906000526020600020906004020160000160009054906101000a900473ffffffffffffffffffffffffffffffffffffffff1673ffffffffffffffffffffffffffffffffffffffff1660026000868154811061063a57610639611dc8565b5b9060005260206000209060040201600201546106569190612045565b604051610662906120b8565b60006040518083038185875af1925050503d806000811461069f576040519150601f19603f3d011682016040523d82523d6000602084013e6106a4565b606091505b50509050505b8060ff168260ff16101561079b5760008084815481106106cd576106cc611dc8565b5b906000526020600020906004020160010160009054906101000a900473ffffffffffffffffffffffffffffffffffffffff1673ffffffffffffffffffffffffffffffffffffffff1660026000868154811061072b5761072a611dc8565b5b9060005260206000209060040201600201546107479190612045565b604051610753906120b8565b60006040518083038185875af1925050503d8060008114610790576040519150601f19603f3d011682016040523d82523d6000602084013e610795565b606091505b50509050505b8060ff168260ff16036109555760008084815481106107bd576107bc611dc8565b5b906000526020600020906004020160000160009054906101000a900473ffffffffffffffffffffffffffffffffffffffff1673ffffffffffffffffffffffffffffffffffffffff166000858154811061081957610818611dc8565b5b906000526020600020906004020160020154604051610837906120b8565b60006040518083038185875af1925050503d8060008114610874576040519150601f19603f3d011682016040523d82523d6000602084013e610879565b606091505b50509050600080858154811061089257610891611dc8565b5b906000526020600020906004020160010160009054906101000a900473ffffffffffffffffffffffffffffffffffffffff1673ffffffffffffffffffffffffffffffffffffffff16600086815481106108ee576108ed611dc8565b5b90600052602060002090600402016002015460405161090c906120b8565b60006040518083038185875af1925050503d8060008114610949576040519150601f19603f3d011682016040523d82523d6000602084013e61094e565b606091505b5050905050505b505050565b600015156000828154811061097257610971611dc8565b5b906000526020600020906004020160010160169054906101000a900460ff161515146109d3576040517f08c379a00000000000000000000000000000000000000000000000000000000081526004016109ca9061213f565b60405180910390fd5b60001515600082815481106109eb576109ea611dc8565b5b906000526020600020906004020160010160159054906101000a900460ff16151514610a4c576040517f08c379a0000000000000000000000000000000000000000000000000000000008152600401610a43906121d1565b60405180910390fd5b60008181548110610a6057610a5f611dc8565b5b906000526020600020906004020160000160009054906101000a900473ffffffffffffffffffffffffffffffffffffffff1673ffffffffffffffffffffffffffffffffffffffff163373ffffffffffffffffffffffffffffffffffffffff161480610b3b575060008181548110610ada57610ad9611dc8565b5b906000526020600020906004020160010160009054906101000a900473ffffffffffffffffffffffffffffffffffffffff1673ffffffffffffffffffffffffffffffffffffffff163373ffffffffffffffffffffffffffffffffffffffff16145b80610bb6575060008181548110610b5557610b54611dc8565b5b906000526020600020906004020160030160009054906101000a900473ffffffffffffffffffffffffffffffffffffffff1673ffffffffffffffffffffffffffffffffffffffff163373ffffffffffffffffffffffffffffffffffffffff16145b610bf5576040517f08c379a0000000000000000000000000000000000000000000000000000000008152600401610bec90612263565b60405180910390fd5b600160008281548110610c0b57610c0a611dc8565b5b906000526020600020906004020160010160166101000a81548160ff0219169083151502179055506000808281548110610c4857610c47611dc8565b5b906000526020600020906004020160000160009054906101000a900473ffffffffffffffffffffffffffffffffffffffff1673ffffffffffffffffffffffffffffffffffffffff1660008381548110610ca457610ca3611dc8565b5b906000526020600020906004020160020154604051610cc2906120b8565b60006040518083038185875af1925050503d8060008114610cff576040519150601f19603f3d011682016040523d82523d6000602084013e610d04565b606091505b505090506001151560008381548110610d2057610d1f611dc8565b5b906000526020600020906004020160010160149054906101000a900460ff16151503610e1d576000808381548110610d5b57610d5a611dc8565b5b906000526020600020906004020160010160009054906101000a900473ffffffffffffffffffffffffffffffffffffffff1673ffffffffffffffffffffffffffffffffffffffff1660008481548110610db757610db6611dc8565b5b906000526020600020906004020160020154604051610dd5906120b8565b60006040518083038185875af1925050503d8060008114610e12576040519150601f19603f3d011682016040523d82523d6000602084013e610e17565b606091505b50509050505b5050565b60008181548110610e3557610e34611dc8565b5b906000526020600020906004020160010160009054906101000a900473ffffffffffffffffffffffffffffffffffffffff1673ffffffffffffffffffffffffffffffffffffffff163373ffffffffffffffffffffffffffffffffffffffff1614610ed4576040517f08c379a0000000000000000000000000000000000000000000000000000000008152600401610ecb906122cf565b60405180910390fd5b60008181548110610ee857610ee7611dc8565b5b906000526020600020906004020160020154341015610f3c576040517f08c379a0000000000000000000000000000000000000000000000000000000008152600401610f339061233b565b60405180910390fd5b600160008281548110610f5257610f51611dc8565b5b906000526020600020906004020160010160146101000a81548160ff02191690831515021790555050565b60008281548110610f9157610f90611dc8565b5b906000526020600020906004020160000160009054906101000a900473ffffffffffffffffffffffffffffffffffffffff1673ffffffffffffffffffffffffffffffffffffffff163373ffffffffffffffffffffffffffffffffffffffff16148061106c57506000828154811061100b5761100a611dc8565b5b906000526020600020906004020160010160009054906101000a900473ffffffffffffffffffffffffffffffffffffffff1673ffffffffffffffffffffffffffffffffffffffff163373ffffffffffffffffffffffffffffffffffffffff16145b6110ab576040517f08c379a00000000000000000000000000000000000000000000000000000000081526004016110a2906123a7565b60405180910390fd5b60011515600083815481106110c3576110c2611dc8565b5b906000526020600020906004020160010160159054906101000a900460ff16151503611124576040517f08c379a000000000000000000000000000000000000000000000000000000000815260040161111b906121d1565b60405180910390fd5b806000838154811061113957611138611dc8565b5b906000526020600020906004020160030160006101000a81548173ffffffffffffffffffffffffffffffffffffffff021916908373ffffffffffffffffffffffffffffffffffffffff1602179055505050565b600082815481106111a05761119f611dc8565b5b906000526020600020906004020160000160009054906101000a900473ffffffffffffffffffffffffffffffffffffffff1673ffffffffffffffffffffffffffffffffffffffff163373ffffffffffffffffffffffffffffffffffffffff161461123f576040517f08c379a000000000000000000000000000000000000000000000000000000000815260040161123690612413565b60405180910390fd5b600115156000838154811061125757611256611dc8565b5b906000526020600020906004020160010160149054906101000a900460ff161515036112b8576040517f08c379a00000000000000000000000000000000000000000000000000000000081526004016112af906124a5565b60405180910390fd5b80600083815481106112cd576112cc611dc8565b5b906000526020600020906004020160010160006101000a81548173ffffffffffffffffffffffffffffffffffffffff021916908373ffffffffffffffffffffffffffffffffffffffff1602179055505050565b600080828154811061133557611334611dc8565b5b906000526020600020906004020160010160159054906101000a900460ff169050919050565b60008082815481106113705761136f611dc8565b5b906000526020600020906004020160010160149054906101000a900460ff169050919050565b60011515600082815481106113ae576113ad611dc8565b5b906000526020600020906004020160010160149054906101000a900460ff1615151461140f576040517f08c379a000000000000000000000000000000000000000000000000000000000815260040161140690612537565b60405180910390fd5b3373ffffffffffffffffffffffffffffffffffffffff166000828154811061143a57611439611dc8565b5b906000526020600020906004020160030160009054906101000a900473ffffffffffffffffffffffffffffffffffffffff1673ffffffffffffffffffffffffffffffffffffffff16146114c2576040517f08c379a00000000000000000000000000000000000000000000000000000000081526004016114b9906125c9565b60405180910390fd5b600073ffffffffffffffffffffffffffffffffffffffff16600082815481106114ee576114ed611dc8565b5b906000526020600020906004020160010160009054906101000a900473ffffffffffffffffffffffffffffffffffffffff1673ffffffffffffffffffffffffffffffffffffffff1603611576576040517f08c379a000000000000000000000000000000000000000000000000000000000815260040161156d90612635565b60405180910390fd5b60016000828154811061158c5761158b611dc8565b5b906000526020600020906004020160010160156101000a81548160ff02191690831515021790555050565b6115bf611a4b565b60008083815481106115d4576115d3611dc8565b5b906000526020600020906004020160000160009054906101000a900473ffffffffffffffffffffffffffffffffffffffff169050600080848154811061161d5761161c611dc8565b5b906000526020600020906004020160010160009054906101000a900473ffffffffffffffffffffffffffffffffffffffff169050600080858154811061166657611665611dc8565b5b906000526020600020906004020160030160009054906101000a900473ffffffffffffffffffffffffffffffffffffffff169050600060405180606001604052808573ffffffffffffffffffffffffffffffffffffffff1673ffffffffffffffffffffffffffffffffffffffff1681526020018473ffffffffffffffffffffffffffffffffffffffff1673ffffffffffffffffffffffffffffffffffffffff1681526020018373ffffffffffffffffffffffffffffffffffffffff1673ffffffffffffffffffffffffffffffffffffffff16815250905080945050505050919050565b6000818154811061175957600080fd5b90600052602060002090600402016000915090508060000160009054906101000a900473ffffffffffffffffffffffffffffffffffffffff16908060010160009054906101000a900473ffffffffffffffffffffffffffffffffffffffff16908060010160149054906101000a900460ff16908060010160159054906101000a900460ff16908060010160169054906101000a900460ff16908060020154908060030160009054906101000a900473ffffffffffffffffffffffffffffffffffffffff16905087565b600080828154811061183757611836611dc8565b5b906000526020600020906004020160010160169054906101000a900460ff169050919050565b60006040518060e001604052803373ffffffffffffffffffffffffffffffffffffffff1681526020018473ffffffffffffffffffffffffffffffffffffffff1681526020016000151581526020016000151581526020016000151581526020013481526020018373ffffffffffffffffffffffffffffffffffffffff16815250908060018154018082558091505060019003906000526020600020906004020160009091909190915060008201518160000160006101000a81548173ffffffffffffffffffffffffffffffffffffffff021916908373ffffffffffffffffffffffffffffffffffffffff16021790555060208201518160010160006101000a81548173ffffffffffffffffffffffffffffffffffffffff021916908373ffffffffffffffffffffffffffffffffffffffff16021790555060408201518160010160146101000a81548160ff02191690831515021790555060608201518160010160156101000a81548160ff02191690831515021790555060808201518160010160166101000a81548160ff02191690831515021790555060a0820151816002015560c08201518160030160006101000a81548173ffffffffffffffffffffffffffffffffffffffff021916908373ffffffffffffffffffffffffffffffffffffffff16021790555050505050565b6040518060600160405280600390602082028036833780820191505090505090565b600080fd5b6000819050919050565b611a8581611a72565b8114611a9057600080fd5b50565b600081359050611aa281611a7c565b92915050565b600060ff82169050919050565b611abe81611aa8565b8114611ac957600080fd5b50565b600081359050611adb81611ab5565b92915050565b600080600060608486031215611afa57611af9611a6d565b5b6000611b0886828701611a93565b9350506020611b1986828701611acc565b9250506040611b2a86828701611acc565b9150509250925092565b600060208284031215611b4a57611b49611a6d565b5b6000611b5884828501611a93565b91505092915050565b600073ffffffffffffffffffffffffffffffffffffffff82169050919050565b6000611b8c82611b61565b9050919050565b611b9c81611b81565b8114611ba757600080fd5b50565b600081359050611bb981611b93565b92915050565b60008060408385031215611bd657611bd5611a6d565b5b6000611be485828601611a93565b9250506020611bf585828601611baa565b9150509250929050565b60008115159050919050565b611c1481611bff565b82525050565b6000602082019050611c2f6000830184611c0b565b92915050565b600060039050919050565b600081905092915050565b6000819050919050565b611c5e81611b81565b82525050565b6000611c708383611c55565b60208301905092915050565b6000602082019050919050565b611c9281611c35565b611c9c8184611c40565b9250611ca782611c4b565b8060005b83811015611cd8578151611cbf8782611c64565b9650611cca83611c7c565b925050600181019050611cab565b505050505050565b6000606082019050611cf56000830184611c89565b92915050565b611d0481611b81565b82525050565b611d1381611a72565b82525050565b600060e082019050611d2e600083018a611cfb565b611d3b6020830189611cfb565b611d486040830188611c0b565b611d556060830187611c0b565b611d626080830186611c0b565b611d6f60a0830185611d0a565b611d7c60c0830184611cfb565b98975050505050505050565b60008060408385031215611d9f57611d9e611a6d565b5b6000611dad85828601611baa565b9250506020611dbe85828601611baa565b9150509250929050565b7f4e487b7100000000000000000000000000000000000000000000000000000000600052603260045260246000fd5b600082825260208201905092915050565b7f4368616c6c656e6765206861736e277420737461727465642100000000000000600082015250565b6000611e3e601983611df7565b9150611e4982611e08565b602082019050919050565b60006020820190508181036000830152611e6d81611e31565b9050919050565b7f4368616c6c656e676520616c726561647920636f6d706c657465640000000000600082015250565b6000611eaa601b83611df7565b9150611eb582611e74565b602082019050919050565b60006020820190508181036000830152611ed981611e9d565b9050919050565b7f5468657265206d7573742062652061207465616d322100000000000000000000600082015250565b6000611f16601683611df7565b9150611f2182611ee0565b602082019050919050565b60006020820190508181036000830152611f4581611f09565b9050919050565b7f596f75206d75737420626520746865206c6f636174696f6e2070726f7669646560008201527f7220746f207361792077686f20776f6e00000000000000000000000000000000602082015250565b6000611fa8603083611df7565b9150611fb382611f4c565b604082019050919050565b60006020820190508181036000830152611fd781611f9b565b9050919050565b611fe781611aa8565b82525050565b60006040820190506120026000830185611fde565b61200f6020830184611fde565b9392505050565b7f4e487b7100000000000000000000000000000000000000000000000000000000600052601160045260246000fd5b600061205082611a72565b915061205b83611a72565b925082820261206981611a72565b915082820484148315176120805761207f612016565b5b5092915050565b600081905092915050565b50565b60006120a2600083612087565b91506120ad82612092565b600082019050919050565b60006120c382612095565b9150819050919050565b7f4368616c6c656e67652068617320616c7265616479206265656e2066696e697360008201527f6865642100000000000000000000000000000000000000000000000000000000602082015250565b6000612129602483611df7565b9150612134826120cd565b604082019050919050565b600060208201905081810360008301526121588161211c565b9050919050565b7f4368616c6c656e67652068617320616c7265616479206265656e20737461727460008201527f6564210000000000000000000000000000000000000000000000000000000000602082015250565b60006121bb602383611df7565b91506121c68261215f565b604082019050919050565b600060208201905081810360008301526121ea816121ae565b9050919050565b7f596f75277265206e6f7420616e79206f6620746865207465616d73206e6f722060008201527f746865206c6f636174696f6e2070726f76696465722100000000000000000000602082015250565b600061224d603683611df7565b9150612258826121f1565b604082019050919050565b6000602082019050818103600083015261227c81612240565b9050919050565b7f596f75277265206e6f7420746865206368616c6c656e676564207465616d2100600082015250565b60006122b9601f83611df7565b91506122c482612283565b602082019050919050565b600060208201905081810360008301526122e8816122ac565b9050919050565b7f486176656e27742073656e7420656e6f75676820455448210000000000000000600082015250565b6000612325601883611df7565b9150612330826122ef565b602082019050919050565b6000602082019050818103600083015261235481612318565b9050919050565b7f596f75277265206e6f7420616e79206f6620746865207465616d732100000000600082015250565b6000612391601c83611df7565b915061239c8261235b565b602082019050919050565b600060208201905081810360008301526123c081612384565b9050919050565b7f596f75277265206e6f7420746865207465616d31210000000000000000000000600082015250565b60006123fd601583611df7565b9150612408826123c7565b602082019050919050565b6000602082019050818103600083015261242c816123f0565b9050919050565b7f4368616c6c656e67652068617320616c7265616479206265656e20616363657060008201527f7465642100000000000000000000000000000000000000000000000000000000602082015250565b600061248f602483611df7565b915061249a82612433565b604082019050919050565b600060208201905081810360008301526124be81612482565b9050919050565b7f5465616d32206861736e277420616363657074656420746865206368616c6c6560008201527f6e67652100000000000000000000000000000000000000000000000000000000602082015250565b6000612521602483611df7565b915061252c826124c5565b604082019050919050565b6000602082019050818103600083015261255081612514565b9050919050565b7f596f75277265206e6f7420746865206c6f636174696f6e2070726f766964657260008201527f2100000000000000000000000000000000000000000000000000000000000000602082015250565b60006125b3602183611df7565b91506125be82612557565b604082019050919050565b600060208201905081810360008301526125e2816125a6565b9050919050565b7f4c61636b696e672061207465616d206f72206d617463682063616e63656c6564600082015250565b600061261f602083611df7565b915061262a826125e9565b602082019050919050565b6000602082019050818103600083015261264e81612612565b905091905056fea264697066735822122059b66ed62342288960138791f3f839a8b639f25929c9bb55af8c8ac0716c8d9964736f6c63430008110033",
  "devdoc": {
    "kind": "dev",
    "methods": {},
    "version": 1
  },
  "userdoc": {
    "kind": "user",
    "methods": {},
    "version": 1
  },
  "storageLayout": {
    "storage": [
      {
        "astId": 20,
        "contract": "contracts/SportsbookBase.sol:SportsbookBase",
        "label": "matchChallenges",
        "offset": 0,
        "slot": "0",
        "type": "t_array(t_struct(MatchChallenge)16_storage)dyn_storage"
      }
    ],
    "types": {
      "t_address": {
        "encoding": "inplace",
        "label": "address",
        "numberOfBytes": "20"
      },
      "t_array(t_struct(MatchChallenge)16_storage)dyn_storage": {
        "base": "t_struct(MatchChallenge)16_storage",
        "encoding": "dynamic_array",
        "label": "struct MatchChallenge[]",
        "numberOfBytes": "32"
      },
      "t_bool": {
        "encoding": "inplace",
        "label": "bool",
        "numberOfBytes": "1"
      },
      "t_struct(MatchChallenge)16_storage": {
        "encoding": "inplace",
        "label": "struct MatchChallenge",
        "members": [
          {
            "astId": 3,
            "contract": "contracts/SportsbookBase.sol:SportsbookBase",
            "label": "team1",
            "offset": 0,
            "slot": "0",
            "type": "t_address"
          },
          {
            "astId": 5,
            "contract": "contracts/SportsbookBase.sol:SportsbookBase",
            "label": "team2",
            "offset": 0,
            "slot": "1",
            "type": "t_address"
          },
          {
            "astId": 7,
            "contract": "contracts/SportsbookBase.sol:SportsbookBase",
            "label": "accepted",
            "offset": 20,
            "slot": "1",
            "type": "t_bool"
          },
          {
            "astId": 9,
            "contract": "contracts/SportsbookBase.sol:SportsbookBase",
            "label": "started",
            "offset": 21,
            "slot": "1",
            "type": "t_bool"
          },
          {
            "astId": 11,
            "contract": "contracts/SportsbookBase.sol:SportsbookBase",
            "label": "finished",
            "offset": 22,
            "slot": "1",
            "type": "t_bool"
          },
          {
            "astId": 13,
            "contract": "contracts/SportsbookBase.sol:SportsbookBase",
            "label": "amount",
            "offset": 0,
            "slot": "2",
            "type": "t_uint256"
          },
          {
            "astId": 15,
            "contract": "contracts/SportsbookBase.sol:SportsbookBase",
            "label": "locationProvider",
            "offset": 0,
            "slot": "3",
            "type": "t_address"
          }
        ],
        "numberOfBytes": "128"
      },
      "t_uint256": {
        "encoding": "inplace",
        "label": "uint256",
        "numberOfBytes": "32"
      }
    }
  }
}